Component: ARM Compiler 5.06 update 7 (build 960) Tool: armlink [4d3601]

==============================================================================

Section Cross References

    main.o(.text) refers to device.o(.text) for rt_device_find
    main.o(.text) refers to thread.o(.text) for rt_thread_mdelay
    main.o(.text) refers to kservice.o(.text) for rt_kprintf
    main.o(.text) refers to dfs_fs.o(.text) for dfs_mount
    main.o(.text) refers to dfs_posix.o(.text) for opendir
    main.o(.text) refers to n32g45x_rcc.o(.text) for RCC_EnableAPB2PeriphClk
    main.o(.text) refers to n32g45x_gpio.o(.text) for GPIO_ConfigPinRemap
    main.o(.text) refers to pin.o(.text) for rt_pin_mode
    main.o(.text) refers to dwt.o(.text) for dwt_init
    main.o(.text) refers to drv_spi.o(.text) for rt_hw_spi_device_attach
    main.o(.text) refers to spi_msd.o(.text) for msd_init
    main.o(.text) refers to fal.o(.text) for fal_init
    main.o(.text) refers to fal_rtt.o(.text) for fal_blk_device_create
    main.o(.text) refers to system_n32g45x.o(.data) for SystemCoreClock
    main.o(.rti_fn.1) refers to main.o(.text) for init_board
    main.o(.rti_fn.4) refers to main.o(.text) for rt_hw_spi_init_test
    main.o(.rti_fn.5) refers to main.o(.text) for init_env
    main.o(.rti_fn.6) refers to main.o(.text) for init_export
==============================================================================

Removing Unused input sections from the image.

    Removing main.o(.rev16_text), (4 bytes).
    Removing main.o(.revsh_text), (4 bytes).
    Removing main.o(.rrx_text), (6 bytes).
    Removing backtrace.o(.text), (2 bytes).
    Removing div0.o(.text), (4 bytes).
    Removing showmem.o(.text), (120 bytes).
    Removing showmem.o(.constdata), (18 bytes).
    Removing pipe.o(.text), (1724 bytes).
    Removing pipe.o(.constdata), (66 bytes).
    Removing pipe.o(.data), (4 bytes).
    Removing ringbuffer.o(.text), (1484 bytes).
    Removing ringbuffer.o(.constdata), (233 bytes).
    Removing ringblk_buf.o(.text), (1644 bytes).
    Removing ringblk_buf.o(.constdata), (274 bytes).
    Removing n32_msp.o(.rev16_text), (4 bytes).
    Removing n32_msp.o(.revsh_text), (4 bytes).
    Removing n32_msp.o(.rrx_text), (6 bytes).
    Removing board.o(.rev16_text), (4 bytes).
    Removing board.o(.revsh_text), (4 bytes).
    Removing board.o(.rrx_text), (6 bytes).
    Removing drv_gpio.o(.rev16_text), (4 bytes).
    Removing drv_gpio.o(.revsh_text), (4 bytes).
    Removing drv_gpio.o(.rrx_text), (6 bytes).
    Removing drv_flash.o(.rev16_text), (4 bytes).
    Removing drv_flash.o(.revsh_text), (4 bytes).
    Removing drv_flash.o(.rrx_text), (6 bytes).
    Removing drv_usart.o(.rev16_text), (4 bytes).
    Removing drv_usart.o(.revsh_text), (4 bytes).
    Removing drv_usart.o(.rrx_text), (6 bytes).
    Removing drv_common.o(.rev16_text), (4 bytes).
    Removing drv_common.o(.revsh_text), (4 bytes).
    Removing drv_common.o(.rrx_text), (6 bytes).
    Removing drv_spi.o(.rev16_text), (4 bytes).
    Removing drv_spi.o(.revsh_text), (4 bytes).
    Removing drv_spi.o(.rrx_text), (6 bytes).
    Removing fal_rtt.o(.rev16_text), (4 bytes).
    Removing fal_rtt.o(.revsh_text), (4 bytes).
    Removing fal_rtt.o(.rrx_text), (6 bytes).
    Removing fal_flash.o(.rev16_text), (4 bytes).
    Removing fal_flash.o(.revsh_text), (4 bytes).
    Removing fal_flash.o(.rrx_text), (6 bytes).
    Removing fal.o(.rev16_text), (4 bytes).
    Removing fal.o(.revsh_text), (4 bytes).
    Removing fal.o(.rrx_text), (6 bytes).
    Removing fal_partition.o(.rev16_text), (4 bytes).
    Removing fal_partition.o(.revsh_text), (4 bytes).
    Removing fal_partition.o(.rrx_text), (6 bytes).
    Removing dfs_poll.o(.text), (536 bytes).
    Removing dfs_select.o(.text), (628 bytes).
    Removing dfs_select.o(.constdata), (7 bytes).
    Removing demo_rtt_iotboard.o(.rev16_text), (4 bytes).
    Removing demo_rtt_iotboard.o(.revsh_text), (4 bytes).
    Removing demo_rtt_iotboard.o(.rrx_text), (6 bytes).
    Removing mempool.o(.text), (1438 bytes).
    Removing mempool.o(.constdata), (62 bytes).
    Removing mempool.o(.data), (8 bytes).
    Removing delay.o(.text), (72 bytes).
    Removing unistd.o(.text), (176 bytes).
    Removing system_n32g45x.o(.rev16_text), (4 bytes).
    Removing system_n32g45x.o(.revsh_text), (4 bytes).
    Removing system_n32g45x.o(.rrx_text), (6 bytes).
    Removing n32g45x_tim.o(.rev16_text), (4 bytes).
    Removing n32g45x_tim.o(.revsh_text), (4 bytes).
    Removing n32g45x_tim.o(.rrx_text), (6 bytes).
    Removing n32g45x_tim.o(.text), (3936 bytes).
    Removing n32g45x_dbg.o(.rev16_text), (4 bytes).
    Removing n32g45x_dbg.o(.revsh_text), (4 bytes).
    Removing n32g45x_dbg.o(.rrx_text), (6 bytes).
    Removing n32g45x_dbg.o(.text), (316 bytes).
    Removing n32g45x_pwr.o(.rev16_text), (4 bytes).
    Removing n32g45x_pwr.o(.revsh_text), (4 bytes).
    Removing n32g45x_pwr.o(.rrx_text), (6 bytes).
    Removing n32g45x_pwr.o(.text), (336 bytes).
    Removing n32g45x_opamp.o(.rev16_text), (4 bytes).
    Removing n32g45x_opamp.o(.revsh_text), (4 bytes).
    Removing n32g45x_opamp.o(.rrx_text), (6 bytes).
    Removing n32g45x_opamp.o(.text), (356 bytes).
    Removing misc.o(.rev16_text), (4 bytes).
    Removing misc.o(.revsh_text), (4 bytes).
    Removing misc.o(.rrx_text), (6 bytes).
    Removing n32g45x_adc.o(.rev16_text), (4 bytes).
    Removing n32g45x_adc.o(.revsh_text), (4 bytes).
    Removing n32g45x_adc.o(.rrx_text), (6 bytes).
    Removing n32g45x_adc.o(.text), (1480 bytes).
    Removing n32g45x_gpio.o(.rev16_text), (4 bytes).
    Removing n32g45x_gpio.o(.revsh_text), (4 bytes).
    Removing n32g45x_gpio.o(.rrx_text), (6 bytes).
    Removing n32g45x_qspi.o(.rev16_text), (4 bytes).
    Removing n32g45x_qspi.o(.revsh_text), (4 bytes).
    Removing n32g45x_qspi.o(.rrx_text), (6 bytes).
    Removing n32g45x_qspi.o(.text), (1528 bytes).
    Removing n32g45x_wwdg.o(.rev16_text), (4 bytes).
    Removing n32g45x_wwdg.o(.revsh_text), (4 bytes).
    Removing n32g45x_wwdg.o(.rrx_text), (6 bytes).
    Removing n32g45x_wwdg.o(.text), (136 bytes).
    Removing n32g45x_flash.o(.rev16_text), (4 bytes).
    Removing n32g45x_flash.o(.revsh_text), (4 bytes).
    Removing n32g45x_flash.o(.rrx_text), (6 bytes).
    Removing n32g45x_crc.o(.rev16_text), (4 bytes).
    Removing n32g45x_crc.o(.revsh_text), (4 bytes).
    Removing n32g45x_crc.o(.rrx_text), (6 bytes).
    Removing n32g45x_crc.o(.text), (208 bytes).
    Removing n32g45x_dma.o(.rev16_text), (4 bytes).
    Removing n32g45x_dma.o(.revsh_text), (4 bytes).
    Removing n32g45x_dma.o(.rrx_text), (6 bytes).
    Removing n32g45x_dvp.o(.rev16_text), (4 bytes).
    Removing n32g45x_dvp.o(.revsh_text), (4 bytes).
    Removing n32g45x_dvp.o(.rrx_text), (6 bytes).
    Removing n32g45x_dvp.o(.text), (284 bytes).
    Removing n32g45x_usart.o(.rev16_text), (4 bytes).
    Removing n32g45x_usart.o(.revsh_text), (4 bytes).
    Removing n32g45x_usart.o(.rrx_text), (6 bytes).
    Removing n32g45x_rcc.o(.rev16_text), (4 bytes).
    Removing n32g45x_rcc.o(.revsh_text), (4 bytes).
    Removing n32g45x_rcc.o(.rrx_text), (6 bytes).
    Removing n32g45x_tsc.o(.rev16_text), (4 bytes).
    Removing n32g45x_tsc.o(.revsh_text), (4 bytes).
    Removing n32g45x_tsc.o(.rrx_text), (6 bytes).
    Removing n32g45x_tsc.o(.text), (1000 bytes).
    Removing n32g45x_sdio.o(.rev16_text), (4 bytes).
    Removing n32g45x_sdio.o(.revsh_text), (4 bytes).
    Removing n32g45x_sdio.o(.rrx_text), (6 bytes).
    Removing n32g45x_sdio.o(.text), (480 bytes).
    Removing n32g45x_can.o(.rev16_text), (4 bytes).
    Removing n32g45x_can.o(.revsh_text), (4 bytes).
    Removing n32g45x_can.o(.rrx_text), (6 bytes).
    Removing n32g45x_can.o(.text), (2756 bytes).
    Removing n32g45x_spi.o(.rev16_text), (4 bytes).
    Removing n32g45x_spi.o(.revsh_text), (4 bytes).
    Removing n32g45x_spi.o(.rrx_text), (6 bytes).
    Removing n32g45x_rtc.o(.rev16_text), (4 bytes).
    Removing n32g45x_rtc.o(.revsh_text), (4 bytes).
    Removing n32g45x_rtc.o(.rrx_text), (6 bytes).
    Removing n32g45x_rtc.o(.text), (2932 bytes).
    Removing n32g45x_bkp.o(.rev16_text), (4 bytes).
    Removing n32g45x_bkp.o(.revsh_text), (4 bytes).
    Removing n32g45x_bkp.o(.rrx_text), (6 bytes).
    Removing n32g45x_bkp.o(.text), (148 bytes).
    Removing n32g45x_eth.o(.rev16_text), (4 bytes).
    Removing n32g45x_eth.o(.revsh_text), (4 bytes).
    Removing n32g45x_eth.o(.rrx_text), (6 bytes).
    Removing n32g45x_eth.o(.text), (4880 bytes).
    Removing n32g45x_eth.o(.data), (16 bytes).
    Removing n32g45x_iwdg.o(.rev16_text), (4 bytes).
    Removing n32g45x_iwdg.o(.revsh_text), (4 bytes).
    Removing n32g45x_iwdg.o(.rrx_text), (6 bytes).
    Removing n32g45x_iwdg.o(.text), (64 bytes).
    Removing n32g45x_comp.o(.rev16_text), (4 bytes).
    Removing n32g45x_comp.o(.revsh_text), (4 bytes).
    Removing n32g45x_comp.o(.rrx_text), (6 bytes).
    Removing n32g45x_comp.o(.text), (656 bytes).
    Removing n32g45x_dac.o(.rev16_text), (4 bytes).
    Removing n32g45x_dac.o(.revsh_text), (4 bytes).
    Removing n32g45x_dac.o(.rrx_text), (6 bytes).
    Removing n32g45x_dac.o(.text), (420 bytes).
    Removing n32g45x_exti.o(.rev16_text), (4 bytes).
    Removing n32g45x_exti.o(.revsh_text), (4 bytes).
    Removing n32g45x_exti.o(.rrx_text), (6 bytes).
    Removing n32g45x_i2c.o(.rev16_text), (4 bytes).
    Removing n32g45x_i2c.o(.revsh_text), (4 bytes).
    Removing n32g45x_i2c.o(.rrx_text), (6 bytes).
    Removing n32g45x_i2c.o(.text), (1028 bytes).
    Removing n32g45x_xfmc.o(.rev16_text), (4 bytes).
    Removing n32g45x_xfmc.o(.revsh_text), (4 bytes).
    Removing n32g45x_xfmc.o(.rrx_text), (6 bytes).
    Removing n32g45x_xfmc.o(.text), (736 bytes).
    Removing nrf24l01_port.o(.rev16_text), (4 bytes).
    Removing nrf24l01_port.o(.revsh_text), (4 bytes).
    Removing nrf24l01_port.o(.rrx_text), (6 bytes).
    Removing u8x8_byte.o(.text), (2268 bytes).
    Removing u8x8_byte.o(.data), (2 bytes).
    Removing u8x8_d_ssd1607_200x200.o(.text), (912 bytes).
    Removing u8x8_d_ssd1607_200x200.o(.constdata), (523 bytes).
    Removing u8x8_d_ssd1607_200x200.o(.data), (8 bytes).
    Removing u8x8_d_uc1609.o(.text), (284 bytes).
    Removing u8x8_d_uc1609.o(.constdata), (76 bytes).
    Removing u8g2_d_setup.o(.text), (41044 bytes).
    Removing u8g2_hvline.o(.text), (482 bytes).
    Removing u8x8_d_pcf8814_hx1230.o(.text), (308 bytes).
    Removing u8x8_d_pcf8814_hx1230.o(.constdata), (72 bytes).
    Removing u8x8_d_sh1108.o(.text), (340 bytes).
    Removing u8x8_d_sh1108.o(.constdata), (96 bytes).
    Removing u8x8_d_st7586s_ymc240160.o(.text), (392 bytes).
    Removing u8x8_d_st7586s_ymc240160.o(.constdata), (144 bytes).
    Removing u8x8_input_value.o(.text), (372 bytes).
    Removing mui.o(.text), (2274 bytes).
    Removing u8x8_cad.o(.text), (2864 bytes).
    Removing u8x8_cad.o(.bss), (16 bytes).
    Removing u8x8_cad.o(.data), (6 bytes).
    Removing u8x8_d_ssd1306_48x64.o(.text), (324 bytes).
    Removing u8x8_d_ssd1306_48x64.o(.constdata), (100 bytes).
    Removing u8x8_d_st75256.o(.text), (2908 bytes).
    Removing u8x8_d_st75256.o(.constdata), (1257 bytes).
    Removing u8x8_u8toa.o(.text), (76 bytes).
    Removing u8x8_u8toa.o(.constdata), (3 bytes).
    Removing u8x8_u8toa.o(.data), (4 bytes).
    Removing u8g2_font.o(.text), (2876 bytes).
    Removing u8g2_kerning.o(.text), (180 bytes).
    Removing u8log_u8x8.o(.text), (152 bytes).
    Removing u8x8_d_ssd1306_72x40.o(.text), (324 bytes).
    Removing u8x8_d_ssd1306_72x40.o(.constdata), (108 bytes).
    Removing u8x8_d_t6963.o(.text), (652 bytes).
    Removing u8x8_d_t6963.o(.constdata), (430 bytes).
    Removing u8x8_setup.o(.text), (164 bytes).
    Removing u8x8_setup.o(.constdata), (24 bytes).
    Removing u8x8_debounce.o(.text), (250 bytes).
    Removing u8x8_d_st7511.o(.text), (352 bytes).
    Removing u8x8_d_st7511.o(.constdata), (139 bytes).
    Removing u8x8_d_st7565.o(.text), (1864 bytes).
    Removing u8x8_d_st7565.o(.constdata), (665 bytes).
    Removing u8g2_button.o(.text), (472 bytes).
    Removing u8log.o(.text), (602 bytes).
    Removing u8x8_d_s1d15721.o(.text), (376 bytes).
    Removing u8x8_d_s1d15721.o(.constdata), (103 bytes).
    Removing u8x8_d_ssd1325.o(.text), (688 bytes).
    Removing u8x8_d_ssd1325.o(.bss), (32 bytes).
    Removing u8x8_d_ssd1325.o(.constdata), (272 bytes).
    Removing u8x8_d_st7571.o(.text), (420 bytes).
    Removing u8x8_d_st7571.o(.constdata), (196 bytes).
    Removing u8x8_u16toa.o(.text), (112 bytes).
    Removing u8x8_u16toa.o(.data), (6 bytes).
    Removing u8x8_d_il3820_296x128.o(.text), (564 bytes).
    Removing u8x8_d_il3820_296x128.o(.constdata), (350 bytes).
    Removing u8x8_d_il3820_296x128.o(.data), (8 bytes).
    Removing u8x8_d_ssd1329.o(.text), (1012 bytes).
    Removing u8x8_d_ssd1329.o(.bss), (32 bytes).
    Removing u8x8_d_ssd1329.o(.constdata), (248 bytes).
    Removing u8x8_d_st7920.o(.text), (376 bytes).
    Removing u8x8_d_st7920.o(.constdata), (112 bytes).
    Removing mui_u8g2.o(.text), (6830 bytes).
    Removing u8g2_ll_hvline.o(.text), (428 bytes).
    Removing u8x8_d_gu800.o(.text), (276 bytes).
    Removing u8x8_d_gu800.o(.constdata), (100 bytes).
    Removing u8x8_d_ssd1306_64x32.o(.text), (396 bytes).
    Removing u8x8_d_ssd1306_64x32.o(.constdata), (154 bytes).
    Removing u8x8_d_uc1610.o(.text), (424 bytes).
    Removing u8x8_d_uc1610.o(.bss), (16 bytes).
    Removing u8x8_d_uc1610.o(.constdata), (84 bytes).
    Removing u8g2_cleardisplay.o(.text), (32 bytes).
    Removing u8x8_d_ist7920.o(.text), (284 bytes).
    Removing u8x8_d_ist7920.o(.constdata), (109 bytes).
    Removing u8x8_d_ssd1309.o(.text), (720 bytes).
    Removing u8x8_d_ssd1309.o(.constdata), (192 bytes).
    Removing u8x8_d_uc1638.o(.text), (456 bytes).
    Removing u8x8_d_uc1638.o(.constdata), (137 bytes).
    Removing u8log_u8g2.o(.text), (164 bytes).
    Removing u8x8_d_ld7032_60x32.o(.text), (440 bytes).
    Removing u8x8_d_ld7032_60x32.o(.constdata), (259 bytes).
    Removing u8x8_d_ssd1606_172x72.o(.text), (496 bytes).
    Removing u8x8_d_ssd1606_172x72.o(.bss), (16 bytes).
    Removing u8x8_d_ssd1606_172x72.o(.constdata), (284 bytes).
    Removing u8x8_d_uc1611.o(.text), (1420 bytes).
    Removing u8x8_d_uc1611.o(.constdata), (372 bytes).
    Removing u8x8_d_a2printer.o(.text), (376 bytes).
    Removing u8x8_d_a2printer.o(.constdata), (24 bytes).
    Removing u8x8_d_ssd1320.o(.text), (584 bytes).
    Removing u8x8_d_ssd1320.o(.bss), (32 bytes).
    Removing u8x8_d_ssd1320.o(.constdata), (233 bytes).
    Removing u8x8_d_uc1701_dogs102.o(.text), (304 bytes).
    Removing u8x8_d_uc1701_dogs102.o(.constdata), (88 bytes).
    Removing u8g2_message.o(.text), (558 bytes).
    Removing u8x8_d_max7219.o(.text), (580 bytes).
    Removing u8x8_d_max7219.o(.constdata), (472 bytes).
    Removing u8x8_d_sh1106_72x40.o(.text), (324 bytes).
    Removing u8x8_d_sh1106_72x40.o(.constdata), (112 bytes).
    Removing u8x8_d_uc1617.o(.text), (620 bytes).
    Removing u8x8_d_uc1617.o(.constdata), (88 bytes).
    Removing u8x8_d_uc1617.o(.data), (8 bytes).
    Removing u8x8_capture.o(.text), (632 bytes).
    Removing u8x8_d_ssd1326.o(.text), (456 bytes).
    Removing u8x8_d_ssd1326.o(.bss), (32 bytes).
    Removing u8x8_d_ssd1326.o(.constdata), (116 bytes).
    Removing u8x8_fonts.o(.constdata), (487478 bytes).
    Removing u8g2_buffer.o(.text), (540 bytes).
    Removing u8g2_intersection.o(.text), (106 bytes).
    Removing u8x8_d_ls013b7dh03.o(.text), (420 bytes).
    Removing u8x8_d_ls013b7dh03.o(.constdata), (96 bytes).
    Removing u8x8_d_ssd1306_2040x16.o(.text), (324 bytes).
    Removing u8x8_d_ssd1306_2040x16.o(.constdata), (100 bytes).
    Removing u8x8_d_st7567.o(.text), (2212 bytes).
    Removing u8x8_d_st7567.o(.constdata), (535 bytes).
    Removing u8x8_d_ist3020.o(.text), (284 bytes).
    Removing u8x8_d_ist3020.o(.constdata), (93 bytes).
    Removing u8x8_d_ssd1316.o(.text), (336 bytes).
    Removing u8x8_d_ssd1316.o(.constdata), (96 bytes).
    Removing u8x8_gpio.o(.text), (26 bytes).
    Removing u8x8_message.o(.text), (488 bytes).
    Removing u8g2_circle.o(.text), (1676 bytes).
    Removing u8g2_line.o(.text), (216 bytes).
    Removing u8x8_d_sbn1661.o(.text), (456 bytes).
    Removing u8x8_d_sbn1661.o(.constdata), (40 bytes).
    Removing u8x8_d_ssd1306_64x48.o(.text), (324 bytes).
    Removing u8x8_d_ssd1306_64x48.o(.constdata), (104 bytes).
    Removing u8x8_d_st7586s_erc240160.o(.text), (396 bytes).
    Removing u8x8_d_st7586s_erc240160.o(.constdata), (164 bytes).
    Removing u8x8_display.o(.text), (480 bytes).
    Removing u8x8_d_ssd1318.o(.text), (424 bytes).
    Removing u8x8_d_ssd1318.o(.constdata), (164 bytes).
    Removing u8x8_d_stdio.o(.text), (204 bytes).
    Removing u8x8_d_stdio.o(.bss), (128 bytes).
    Removing u8g2_box.o(.text), (862 bytes).
    Removing u8g2_setup.o(.text), (1148 bytes).
    Removing u8g2_setup.o(.constdata), (72 bytes).
    Removing u8g2_setup.o(.data), (8 bytes).
    Removing u8x8_d_ks0108.o(.text), (1112 bytes).
    Removing u8x8_d_ks0108.o(.constdata), (60 bytes).
    Removing u8x8_d_sh1122.o(.text), (448 bytes).
    Removing u8x8_d_sh1122.o(.constdata), (103 bytes).
    Removing u8x8_d_sh1122.o(.data), (8 bytes).
    Removing u8x8_d_st7586s_s028hn118a.o(.text), (444 bytes).
    Removing u8x8_d_st7586s_s028hn118a.o(.constdata), (152 bytes).
    Removing u8x8_string.o(.text), (344 bytes).
    Removing u8x8_d_s1d15e06.o(.text), (360 bytes).
    Removing u8x8_d_s1d15e06.o(.constdata), (115 bytes).
    Removing u8x8_d_ssd1317.o(.text), (344 bytes).
    Removing u8x8_d_ssd1317.o(.constdata), (104 bytes).
    Removing u8x8_d_uc1608.o(.text), (640 bytes).
    Removing u8x8_d_uc1608.o(.constdata), (275 bytes).
    Removing u8g2_polygon.o(.text), (1000 bytes).
    Removing u8g2_polygon.o(.bss), (76 bytes).
    Removing u8x8_8x8.o(.text), (1596 bytes).
    Removing u8x8_d_ssd1306_96x16.o(.text), (324 bytes).
    Removing u8x8_d_ssd1306_96x16.o(.constdata), (104 bytes).
    Removing u8x8_d_st75160.o(.text), (384 bytes).
    Removing u8x8_d_st75160.o(.constdata), (177 bytes).
    Removing u8x8_d_pcd8544_84x48.o(.text), (256 bytes).
    Removing u8x8_d_pcd8544_84x48.o(.constdata), (60 bytes).
    Removing u8x8_d_sh1107.o(.text), (744 bytes).
    Removing u8x8_d_sh1107.o(.constdata), (312 bytes).
    Removing u8x8_d_uc1701_mini12864.o(.text), (304 bytes).
    Removing u8x8_d_uc1701_mini12864.o(.constdata), (88 bytes).
    Removing u8g2_bitmap.o(.text), (732 bytes).
    Removing u8g2_fonts.o(.constdata), (10983970 bytes).
    Removing u8x8_d_lc7981.o(.text), (536 bytes).
    Removing u8x8_d_lc7981.o(.constdata), (223 bytes).
    Removing u8x8_d_ssd1306_128x64_noname.o(.text), (740 bytes).
    Removing u8x8_d_ssd1306_128x64_noname.o(.constdata), (276 bytes).
    Removing u8x8_d_st7528.o(.text), (584 bytes).
    Removing u8x8_d_st7528.o(.bss), (32 bytes).
    Removing u8x8_d_st7528.o(.constdata), (180 bytes).
    Removing u8x8_d_sed1330.o(.text), (428 bytes).
    Removing u8x8_d_sed1330.o(.constdata), (238 bytes).
    Removing u8x8_d_ssd1305.o(.text), (708 bytes).
    Removing u8x8_d_ssd1305.o(.constdata), (236 bytes).
    Removing u8x8_d_st7588.o(.text), (440 bytes).
    Removing u8x8_d_st7588.o(.constdata), (77 bytes).
    Removing u8g2_input_value.o(.text), (392 bytes).
    Removing u8x8_d_hd44102.o(.text), (916 bytes).
    Removing u8x8_d_hd44102.o(.constdata), (60 bytes).
    Removing u8x8_d_ssd1322.o(.text), (972 bytes).
    Removing u8x8_d_ssd1322.o(.bss), (32 bytes).
    Removing u8x8_d_ssd1322.o(.constdata), (253 bytes).
    Removing u8x8_d_st75320.o(.text), (392 bytes).
    Removing u8x8_d_st75320.o(.constdata), (196 bytes).
    Removing u8x8_d_sh1106_64x32.o(.text), (324 bytes).
    Removing u8x8_d_sh1106_64x32.o(.constdata), (112 bytes).
    Removing u8x8_d_ssd1327.o(.text), (1132 bytes).
    Removing u8x8_d_ssd1327.o(.bss), (32 bytes).
    Removing u8x8_d_ssd1327.o(.constdata), (631 bytes).
    Removing u8x8_d_uc1601.o(.text), (552 bytes).
    Removing u8x8_d_uc1601.o(.constdata), (124 bytes).
    Removing u8g2_d_memory.o(.text), (2144 bytes).
    Removing u8g2_d_memory.o(.bss), (153992 bytes).
    Removing u8g2_d_memory.o(.data), (16 bytes).
    Removing u8g2_selection_list.o(.text), (820 bytes).
    Removing u8x8_d_pcf8812.o(.text), (272 bytes).
    Removing u8x8_d_pcf8812.o(.constdata), (60 bytes).
    Removing u8x8_d_ssd1306_128x32.o(.text), (428 bytes).
    Removing u8x8_d_ssd1306_128x32.o(.constdata), (204 bytes).
    Removing u8x8_d_uc1604.o(.text), (344 bytes).
    Removing u8x8_d_uc1604.o(.constdata), (87 bytes).
    Removing u8x8_selection_list.o(.text), (488 bytes).
    Removing u8g2_port.o(.rev16_text), (4 bytes).
    Removing u8g2_port.o(.revsh_text), (4 bytes).
    Removing u8g2_port.o(.rrx_text), (6 bytes).
    Removing u8g2_port.o(.text), (1112 bytes).
    Removing u8g2_port.o(.bss), (96 bytes).

377 unused section(s) (total 11789373 bytes) removed from the image.
